{
  "contractName": "Introduction",
  "abi": [
    {
      "anonymous": false,
      "inputs": [
        {
          "indexed": false,
          "internalType": "string",
          "name": "data",
          "type": "string"
        }
      ],
      "name": "dataAdded",
      "type": "event"
    },
    {
      "constant": false,
      "inputs": [
        {
          "internalType": "string",
          "name": "data",
          "type": "string"
        }
      ],
      "name": "add",
      "outputs": [],
      "payable": false,
      "stateMutability": "nonpayable",
      "type": "function"
    }
  ],
  "bytecode": "0x608060405234801561001057600080fd5b50610287806100206000396000f3fe608060405234801561001057600080fd5b506004361061002b5760003560e01c8063b0c8f9dc14610030575b600080fd5b6100d66004803603602081101561004657600080fd5b81019060208101813564010000000081111561006157600080fd5b82018360208201111561007357600080fd5b8035906020019184600183028401116401000000008311171561009557600080fd5b91908080601f0160208091040260200160405190810160405280939291908181526020018383808284376000920191909152509295506100d8945050505050565b005b60008054600181018083559180528251610119917f290decd9548b62a8d60345a988386fc84ba6bc95484008f6362f93160ef3e563019060208501906101b7565b50507f265c82e26c0c505235a1c3d0323735b3950bd500d486fda6ff3d530bd2374c7c816040518080602001828103825283818151815260200191508051906020019080838360005b8381101561017a578181015183820152602001610162565b50505050905090810190601f1680156101a75780820380516001836020036101000a031916815260200191505b509250505060405180910390a150565b828054600181600116156101000203166002900490600052602060002090601f016020900481019282601f106101f857805160ff1916838001178555610225565b82800160010185558215610225579182015b8281111561022557825182559160200191906001019061020a565b50610231929150610235565b5090565b61024f91905b80821115610231576000815560010161023b565b9056fea265627a7a7231582028670ab3b5892fbd80741170f845af0cc2a978591e79a4126342811757f4828764736f6c63430005100032",
  "source": "// SPDX-License-Identifier: MIT\npragma solidity >=0.4.22 <0.9.0;\n\ncontract Introduction {\n    string[] private allData;\n\n    event dataAdded(string data);\n\n    function add(string memory data) public {\n        allData.push(data);\n        emit dataAdded(data);\n    }\n}",
  "sourcePath": "D:\\Flutter_Applications\\Blockchain_Introduction\\contracts\\Introduction.sol",
  "compiler": {
    "name": "solc",
    "version": "0.5.16+commit.9c3226ce.Emscripten.clang"
  },
  "schemaVersion": "3.4.5",
  "updatedAt": "2023-02-12T18:20:11.582Z",
  "networkType": "ethereum",
  "devdoc": {
    "methods": {}
  },
  "userdoc": {
    "methods": {}
  }
}